{
  "fileName": "NFTStaking.sol",
  "contractName": "NFTStaking",
  "source": "// SPDX-License-Identifier: MIT\n\npragma solidity ^0.6.12;\npragma experimental ABIEncoderV2;\n\nimport \"./includes/IERC20.sol\";\n\ncontract NFTStaking {\n\n  bool public active;\n  uint256 public startTime;\n  uint256 public cutoffTime;\n  address public governance;\n  IERC20 internal immutable NFTProtocol;\n  struct rewardSchedule {\n    uint64 days30;\n    uint64 days45;\n    uint64 days60;\n    uint64 days90;\n  }\n  rewardSchedule public rewardMultiplier = rewardSchedule({\n    days30: 2,\n    days45: 3,\n    days60: 5,\n    days90: 10\n  });\n\n  mapping(address=>uint256) public userDepositTotal;\n  mapping(address=>uint256) public numUserDeposits;\n  address[] public allStakingUsers;\n  struct userDeposit {\n    uint256 amountNFT;\n    uint256 depositTime;\n  }\n  mapping(address=>userDeposit[]) public userDeposits;\n\n  uint256 public totalDeposited;\n  uint256 public userFunds;\n  uint256 public stakingFunds;\n  uint256 public constant maxContractStakingCapacity = 7500000 * 1 ether;\n  uint256 public constant userMaxDeposits = 5;\n  uint256 public constant totalRewardSupply = 750000 * 1 ether;\n  uint256 public constant minStakingAmount = 10000 * 1 ether;\n  uint256 public constant maxStakingAmount = 1000000 * 1 ether;\n\n  constructor (address nftAddress) public {\n    //NFTProtocol = IERC20(0xB5a9f4270157BeDe68070df7A070525644fc782D);\n    NFTProtocol = IERC20(nftAddress);\n    governance = msg.sender;\n  }\n\n  function deposit(uint256 depositAmount) external {\n    require(NFTProtocol.balanceOf(msg.sender) >= depositAmount, \"not enough NFT tokens\");\n    require(active == true, \"staking has not begun yet\");\n    require(depositAmount >= minStakingAmount, \"depositAmount too low\");\n    require(depositAmount <= maxStakingAmount, \"depositAmount too high\");\n    require(numUserDeposits[msg.sender] < userMaxDeposits, \"users can only have 5 total deposits\");\n    require(totalDeposited < maxContractStakingCapacity, \"contract staking capacity exceeded\");\n    require(block.timestamp < cutoffTime, \"contract staking deposit time period over\");\n    if (userDepositTotal[msg.sender] == 0) allStakingUsers.push(msg.sender);\n    userDepositTotal[msg.sender] += depositAmount;\n    totalDeposited += depositAmount;\n    userFunds += depositAmount;\n    userDeposits[msg.sender].push(userDeposit({\n      amountNFT: depositAmount,\n      depositTime: block.timestamp\n    }));\n    numUserDeposits[msg.sender] = numUserDeposits[msg.sender] + 1;\n    NFTProtocol.transferFrom(msg.sender, address(this), depositAmount);\n  }\n\n  event Withdraw(address userAddress, uint256 principal, uint256 yield, uint256 userFundsRemaining, uint256 stakingFundsRemaining);\n  function withdrawAll() public {\n    require(active == true, \"staking has not begun yet\");\n    uint256 withdrawalAmount = userDepositTotal[msg.sender];\n    uint256 userYield = getUserYield(msg.sender);\n    userDepositTotal[msg.sender] = 0;\n    userFunds -= withdrawalAmount;\n    stakingFunds -= userYield;\n    delete userDepositTotal[msg.sender];\n    delete userDeposits[msg.sender];\n    NFTProtocol.transfer(msg.sender, withdrawalAmount);\n    NFTProtocol.transfer(msg.sender, userYield);\n    emit Withdraw(msg.sender, withdrawalAmount, userYield, userFunds, stakingFunds);\n  }\n\n  event WithdrawPrincipal(address userAddress, uint256 principal, uint256 userFundsRemaining);\n  function withdrawPrincipal() public {\n    require(active == true, \"staking has not begun yet\");\n    uint256 withdrawalAmount = userDepositTotal[msg.sender];\n    userDepositTotal[msg.sender] = 0;\n    userFunds -= withdrawalAmount;\n    delete userDepositTotal[msg.sender];\n    delete userDeposits[msg.sender];\n    NFTProtocol.transfer(msg.sender, withdrawalAmount);\n    emit WithdrawPrincipal(msg.sender, withdrawalAmount, userFunds);\n  }\n\n  event StakingBegins(uint256 timestamp, uint256 stakingFunds);\n  function beginStaking() external {\n    require(msg.sender == governance, \"only governance can begin staking\");\n    require(NFTProtocol.balanceOf(address(this)) == totalRewardSupply, \"not enough staking rewards\");\n    active = true;\n    startTime = block.timestamp;\n    cutoffTime = startTime + 60 days;\n    stakingFunds = totalRewardSupply;\n    emit StakingBegins(startTime, stakingFunds);\n  }\n\n  function getYieldMultiplier(uint256 daysStaked) public view returns(uint256) {\n    if (daysStaked >= 90) return rewardMultiplier.days90;\n    if (daysStaked >= 60) return rewardMultiplier.days60;\n    if (daysStaked >= 45) return rewardMultiplier.days45;\n    if (daysStaked >= 30) return rewardMultiplier.days30;\n    return 0;\n  }\n\n  function getUserYield(address userAddress) public view returns(uint256) {\n    uint256 totalYield;\n    for (uint256 i = 0; i < userDeposits[userAddress].length; i++) {\n      uint256 daysStaked = (block.timestamp - userDeposits[userAddress][i].depositTime) / 1 days;\n      uint256 yieldMultiplier = getYieldMultiplier(daysStaked);\n      totalYield += userDeposits[userAddress][i].amountNFT * 1 ether * yieldMultiplier / (1 ether * 100);\n    }\n    return totalYield;\n  }\n\n  function getUserDeposits(address userAddress) external view returns(userDeposit[] memory) {\n    return userDeposits[userAddress];\n  }\n\n}\n",
  "sourcePath": "contracts/NFTStaking.sol",
  "abi": [
    {
      "inputs": [
        {
          "internalType": "address",
          "name": "nftAddress",
          "type": "address"
        }
      ],
      "stateMutability": "nonpayable",
      "type": "constructor"
    },
    {
      "anonymous": false,
      "inputs": [
        {
          "indexed": false,
          "internalType": "uint256",
          "name": "timestamp",
          "type": "uint256"
        },
        {
          "indexed": false,
          "internalType": "uint256",
          "name": "stakingFunds",
          "type": "uint256"
        }
      ],
      "name": "StakingBegins",
      "type": "event"
    },
    {
      "anonymous": false,
      "inputs": [
        {
          "indexed": false,
          "internalType": "address",
          "name": "userAddress",
          "type": "address"
        },
        {
          "indexed": false,
          "internalType": "uint256",
          "name": "principal",
          "type": "uint256"
        },
        {
          "indexed": false,
          "internalType": "uint256",
          "name": "yield",
          "type": "uint256"
        },
        {
          "indexed": false,
          "internalType": "uint256",
          "name": "userFundsRemaining",
          "type": "uint256"
        },
        {
          "indexed": false,
          "internalType": "uint256",
          "name": "stakingFundsRemaining",
          "type": "uint256"
        }
      ],
      "name": "Withdraw",
      "type": "event"
    },
    {
      "anonymous": false,
      "inputs": [
        {
          "indexed": false,
          "internalType": "address",
          "name": "userAddress",
          "type": "address"
        },
        {
          "indexed": false,
          "internalType": "uint256",
          "name": "principal",
          "type": "uint256"
        },
        {
          "indexed": false,
          "internalType": "uint256",
          "name": "userFundsRemaining",
          "type": "uint256"
        }
      ],
      "name": "WithdrawPrincipal",
      "type": "event"
    },
    {
      "inputs": [],
      "name": "active",
      "outputs": [
        {
          "internalType": "bool",
          "name": "",
          "type": "bool"
        }
      ],
      "stateMutability": "view",
      "type": "function"
    },
    {
      "inputs": [
        {
          "internalType": "uint256",
          "name": "",
          "type": "uint256"
        }
      ],
      "name": "allStakingUsers",
      "outputs": [
        {
          "internalType": "address",
          "name": "",
          "type": "address"
        }
      ],
      "stateMutability": "view",
      "type": "function"
    },
    {
      "inputs": [],
      "name": "beginStaking",
      "outputs": [],
      "stateMutability": "nonpayable",
      "type": "function"
    },
    {
      "inputs": [],
      "name": "cutoffTime",
      "outputs": [
        {
          "internalType": "uint256",
          "name": "",
          "type": "uint256"
        }
      ],
      "stateMutability": "view",
      "type": "function"
    },
    {
      "inputs": [
        {
          "internalType": "uint256",
          "name": "depositAmount",
          "type": "uint256"
        }
      ],
      "name": "deposit",
      "outputs": [],
      "stateMutability": "nonpayable",
      "type": "function"
    },
    {
      "inputs": [
        {
          "internalType": "address",
          "name": "userAddress",
          "type": "address"
        }
      ],
      "name": "getUserDeposits",
      "outputs": [
        {
          "components": [
            {
              "internalType": "uint256",
              "name": "amountNFT",
              "type": "uint256"
            },
            {
              "internalType": "uint256",
              "name": "depositTime",
              "type": "uint256"
            }
          ],
          "internalType": "struct NFTStaking.userDeposit[]",
          "name": "",
          "type": "tuple[]"
        }
      ],
      "stateMutability": "view",
      "type": "function"
    },
    {
      "inputs": [
        {
          "internalType": "address",
          "name": "userAddress",
          "type": "address"
        }
      ],
      "name": "getUserYield",
      "outputs": [
        {
          "internalType": "uint256",
          "name": "",
          "type": "uint256"
        }
      ],
      "stateMutability": "view",
      "type": "function"
    },
    {
      "inputs": [
        {
          "internalType": "uint256",
          "name": "daysStaked",
          "type": "uint256"
        }
      ],
      "name": "getYieldMultiplier",
      "outputs": [
        {
          "internalType": "uint256",
          "name": "",
          "type": "uint256"
        }
      ],
      "stateMutability": "view",
      "type": "function"
    },
    {
      "inputs": [],
      "name": "governance",
      "outputs": [
        {
          "internalType": "address",
          "name": "",
          "type": "address"
        }
      ],
      "stateMutability": "view",
      "type": "function"
    },
    {
      "inputs": [],
      "name": "maxContractStakingCapacity",
      "outputs": [
        {
          "internalType": "uint256",
          "name": "",
          "type": "uint256"
        }
      ],
      "stateMutability": "view",
      "type": "function"
    },
    {
      "inputs": [],
      "name": "maxStakingAmount",
      "outputs": [
        {
          "internalType": "uint256",
          "name": "",
          "type": "uint256"
        }
      ],
      "stateMutability": "view",
      "type": "function"
    },
    {
      "inputs": [],
      "name": "minStakingAmount",
      "outputs": [
        {
          "internalType": "uint256",
          "name": "",
          "type": "uint256"
        }
      ],
      "stateMutability": "view",
      "type": "function"
    },
    {
      "inputs": [
        {
          "internalType": "address",
          "name": "",
          "type": "address"
        }
      ],
      "name": "numUserDeposits",
      "outputs": [
        {
          "internalType": "uint256",
          "name": "",
          "type": "uint256"
        }
      ],
      "stateMutability": "view",
      "type": "function"
    },
    {
      "inputs": [],
      "name": "rewardMultiplier",
      "outputs": [
        {
          "internalType": "uint64",
          "name": "days30",
          "type": "uint64"
        },
        {
          "internalType": "uint64",
          "name": "days45",
          "type": "uint64"
        },
        {
          "internalType": "uint64",
          "name": "days60",
          "type": "uint64"
        },
        {
          "internalType": "uint64",
          "name": "days90",
          "type": "uint64"
        }
      ],
      "stateMutability": "view",
      "type": "function"
    },
    {
      "inputs": [],
      "name": "stakingFunds",
      "outputs": [
        {
          "internalType": "uint256",
          "name": "",
          "type": "uint256"
        }
      ],
      "stateMutability": "view",
      "type": "function"
    },
    {
      "inputs": [],
      "name": "startTime",
      "outputs": [
        {
          "internalType": "uint256",
          "name": "",
          "type": "uint256"
        }
      ],
      "stateMutability": "view",
      "type": "function"
    },
    {
      "inputs": [],
      "name": "totalDeposited",
      "outputs": [
        {
          "internalType": "uint256",
          "name": "",
          "type": "uint256"
        }
      ],
      "stateMutability": "view",
      "type": "function"
    },
    {
      "inputs": [],
      "name": "totalRewardSupply",
      "outputs": [
        {
          "internalType": "uint256",
          "name": "",
          "type": "uint256"
        }
      ],
      "stateMutability": "view",
      "type": "function"
    },
    {
      "inputs": [
        {
          "internalType": "address",
          "name": "",
          "type": "address"
        }
      ],
      "name": "userDepositTotal",
      "outputs": [
        {
          "internalType": "uint256",
          "name": "",
          "type": "uint256"
        }
      ],
      "stateMutability": "view",
      "type": "function"
    },
    {
      "inputs": [
        {
          "internalType": "address",
          "name": "",
          "type": "address"
        },
        {
          "internalType": "uint256",
          "name": "",
          "type": "uint256"
        }
      ],
      "name": "userDeposits",
      "outputs": [
        {
          "internalType": "uint256",
          "name": "amountNFT",
          "type": "uint256"
        },
        {
          "internalType": "uint256",
          "name": "depositTime",
          "type": "uint256"
        }
      ],
      "stateMutability": "view",
      "type": "function"
    },
    {
      "inputs": [],
      "name": "userFunds",
      "outputs": [
        {
          "internalType": "uint256",
          "name": "",
          "type": "uint256"
        }
      ],
      "stateMutability": "view",
      "type": "function"
    },
    {
      "inputs": [],
      "name": "userMaxDeposits",
      "outputs": [
        {
          "internalType": "uint256",
          "name": "",
          "type": "uint256"
        }
      ],
      "stateMutability": "view",
      "type": "function"
    },
    {
      "inputs": [],
      "name": "withdrawAll",
      "outputs": [],
      "stateMutability": "nonpayable",
      "type": "function"
    },
    {
      "inputs": [],
      "name": "withdrawPrincipal",
      "outputs": [],
      "stateMutability": "nonpayable",
      "type": "function"
    }
  ],
  "bytecode": "0x60a06040526040518060800160405280600267ffffffffffffffff168152602001600367ffffffffffffffff168152602001600567ffffffffffffffff168152602001600a67ffffffffffffffff16815250600460008201518160000160006101000a81548167ffffffffffffffff021916908367ffffffffffffffff16021790555060208201518160000160086101000a81548167ffffffffffffffff021916908367ffffffffffffffff16021790555060408201518160000160106101000a81548167ffffffffffffffff021916908367ffffffffffffffff16021790555060608201518160000160186101000a81548167ffffffffffffffff021916908367ffffffffffffffff16021790555050503480156200011e57600080fd5b50604051620022c0380380620022c08339818101604052810190620001449190620001da565b8073ffffffffffffffffffffffffffffffffffffffff1660808173ffffffffffffffffffffffffffffffffffffffff1660601b8152505033600360006101000a81548173ffffffffffffffffffffffffffffffffffffffff021916908373ffffffffffffffffffffffffffffffffffffffff1602179055505062000254565b600081519050620001d4816200023a565b92915050565b600060208284031215620001ed57600080fd5b6000620001fd84828501620001c3565b91505092915050565b600062000213826200021a565b9050919050565b600073ffffffffffffffffffffffffffffffffffffffff82169050919050565b620002458162000206565b81146200025157600080fd5b50565b60805160601c6120356200028b60003980610a255280610ad35280610c31528061115052806112ad528061159052506120356000f3fe608060405234801561001057600080fd5b50600436106101585760003560e01c806378e97925116100c35780639fb15c5b1161007c5780639fb15c5b146103d5578063b6b55f2514610405578063c08b4fb614610421578063dfef57171461043f578063e1f06f5414610449578063ff50abdc1461045357610158565b806378e9792514610311578063846279e71461032f578063853828b61461035f5780638a8a759e1461036957806392ae17d31461038757806396d4034b146103a557610158565b80634229abdd116101155780634229abdd146102485780634d5d0806146102785780635104548f146102965780635aa6e675146102b457806362107e8d146102d25780636f2c590a146102f057610158565b806302fb0c5e1461015d57806308f433331461017b5780632247f9cb146101ac57806325c065b1146101ca5780632a5bf6d2146101e8578063316d231414610218575b600080fd5b610165610471565b6040516101729190611d1a565b60405180910390f35b6101956004803603810190610190919061174a565b610482565b6040516101a3929190611e70565b60405180910390f35b6101b46104c0565b6040516101c19190611e55565b60405180910390f35b6101d26104c6565b6040516101df9190611e55565b60405180910390f35b61020260048036038101906101fd9190611721565b6104d4565b60405161020f9190611cf8565b60405180910390f35b610232600480360381019061022d91906117af565b610586565b60405161023f9190611e55565b60405180910390f35b610262600480360381019061025d9190611721565b61065e565b60405161026f9190611e55565b60405180910390f35b6102806107c0565b60405161028d9190611e55565b60405180910390f35b61029e6107ce565b6040516102ab9190611e55565b60405180910390f35b6102bc6107d3565b6040516102c99190611bd8565b60405180910390f35b6102da6107f9565b6040516102e79190611e55565b60405180910390f35b6102f86107ff565b6040516103089493929190611e99565b60405180910390f35b61031961086d565b6040516103269190611e55565b60405180910390f35b61034960048036038101906103449190611721565b610873565b6040516103569190611e55565b60405180910390f35b61036761088b565b005b610371610bc6565b60405161037e9190611e55565b60405180910390f35b61038f610bd4565b60405161039c9190611e55565b60405180910390f35b6103bf60048036038101906103ba9190611721565b610bda565b6040516103cc9190611e55565b60405180910390f35b6103ef60048036038101906103ea91906117af565b610bf2565b6040516103fc9190611bd8565b60405180910390f35b61041f600480360381019061041a91906117af565b610c2e565b005b610429611201565b6040516104369190611e55565b60405180910390f35b610447611210565b005b610451611413565b005b61045b61167c565b6040516104689190611e55565b60405180910390f35b60008054906101000a900460ff1681565b6008602052816000526040600020818154811061049b57fe5b9060005260206000209060020201600091509150508060000154908060010154905082565b600a5481565b69021e19e0c9bab240000081565b6060600860008373ffffffffffffffffffffffffffffffffffffffff1673ffffffffffffffffffffffffffffffffffffffff168152602001908152602001600020805480602002602001604051908101604052809291908181526020016000905b8282101561057b57838290600052602060002090600202016040518060400160405290816000820154815260200160018201548152505081526020019060010190610535565b505050509050919050565b6000605a82106105bb57600460000160189054906101000a900467ffffffffffffffff1667ffffffffffffffff169050610659565b603c82106105ee57600460000160109054906101000a900467ffffffffffffffff1667ffffffffffffffff169050610659565b602d821061062157600460000160089054906101000a900467ffffffffffffffff1667ffffffffffffffff169050610659565b601e821061065457600460000160009054906101000a900467ffffffffffffffff1667ffffffffffffffff169050610659565b600090505b919050565b60008060005b600860008573ffffffffffffffffffffffffffffffffffffffff1673ffffffffffffffffffffffffffffffffffffffff168152602001908152602001600020805490508110156107b657600062015180600860008773ffffffffffffffffffffffffffffffffffffffff1673ffffffffffffffffffffffffffffffffffffffff16815260200190815260200160002083815481106106fe57fe5b90600052602060002090600202016001015442038161071957fe5b049050600061072782610586565b905068056bc75e2d6310000081670de0b6b3a7640000600860008a73ffffffffffffffffffffffffffffffffffffffff1673ffffffffffffffffffffffffffffffffffffffff168152602001908152602001600020868154811061078757fe5b9060005260206000209060020201600001540202816107a257fe5b048401935050508080600101915050610664565b5080915050919050565b69d3c21bcecceda100000081565b600581565b600360009054906101000a900473ffffffffffffffffffffffffffffffffffffffff1681565b60025481565b60048060000160009054906101000a900467ffffffffffffffff16908060000160089054906101000a900467ffffffffffffffff16908060000160109054906101000a900467ffffffffffffffff16908060000160189054906101000a900467ffffffffffffffff16905084565b60015481565b60056020528060005260406000206000915090505481565b6001151560008054906101000a900460ff161515146108df576040517f08c379a00000000000000000000000000000000000000000000000000000000081526004016108d690611d95565b60405180910390fd5b6000600560003373ffffffffffffffffffffffffffffffffffffffff1673ffffffffffffffffffffffffffffffffffffffff168152602001908152602001600020549050600061092e3361065e565b90506000600560003373ffffffffffffffffffffffffffffffffffffffff1673ffffffffffffffffffffffffffffffffffffffff1681526020019081526020016000208190555081600a6000828254039250508190555080600b60008282540392505081905550600560003373ffffffffffffffffffffffffffffffffffffffff1673ffffffffffffffffffffffffffffffffffffffff16815260200190815260200160002060009055600860003373ffffffffffffffffffffffffffffffffffffffff1673ffffffffffffffffffffffffffffffffffffffff1681526020019081526020016000206000610a239190611682565b7f000000000000000000000000000000000000000000000000000000000000000073ffffffffffffffffffffffffffffffffffffffff1663a9059cbb33846040518363ffffffff1660e01b8152600401610a7e929190611c45565b602060405180830381600087803b158015610a9857600080fd5b505af1158015610aac573d6000803e3d6000fd5b505050506040513d601f19601f82011682018060405250810190610ad09190611786565b507f000000000000000000000000000000000000000000000000000000000000000073ffffffffffffffffffffffffffffffffffffffff1663a9059cbb33836040518363ffffffff1660e01b8152600401610b2c929190611c45565b602060405180830381600087803b158015610b4657600080fd5b505af1158015610b5a573d6000803e3d6000fd5b505050506040513d601f19601f82011682018060405250810190610b7e9190611786565b507fe08737ac48a1dab4b1a46c7dc9398bd5bfc6d7ad6fabb7cd8caa254de14def35338383600a54600b54604051610bba959493929190611ca5565b60405180910390a15050565b699ed194db19b238c0000081565b600b5481565b60066020528060005260406000206000915090505481565b60078181548110610bff57fe5b906000526020600020016000915054906101000a900473ffffffffffffffffffffffffffffffffffffffff1681565b807f000000000000000000000000000000000000000000000000000000000000000073ffffffffffffffffffffffffffffffffffffffff166370a08231336040518263ffffffff1660e01b8152600401610c889190611bf3565b60206040518083038186803b158015610ca057600080fd5b505afa158015610cb4573d6000803e3d6000fd5b505050506040513d601f19601f82011682018060405250810190610cd891906117d8565b1015610d19576040517f08c379a0000000000000000000000000000000000000000000000000000000008152600401610d1090611d75565b60405180910390fd5b6001151560008054906101000a900460ff16151514610d6d576040517f08c379a0000000000000000000000000000000000000000000000000000000008152600401610d6490611d95565b60405180910390fd5b69021e19e0c9bab2400000811015610dba576040517f08c379a0000000000000000000000000000000000000000000000000000000008152600401610db190611db5565b60405180910390fd5b69d3c21bcecceda1000000811115610e07576040517f08c379a0000000000000000000000000000000000000000000000000000000008152600401610dfe90611e15565b60405180910390fd5b6005600660003373ffffffffffffffffffffffffffffffffffffffff1673ffffffffffffffffffffffffffffffffffffffff1681526020019081526020016000205410610e89576040517f08c379a0000000000000000000000000000000000000000000000000000000008152600401610e8090611dd5565b60405180910390fd5b6a06342fd08f00f63780000060095410610ed8576040517f08c379a0000000000000000000000000000000000000000000000000000000008152600401610ecf90611d55565b60405180910390fd5b6002544210610f1c576040517f08c379a0000000000000000000000000000000000000000000000000000000008152600401610f1390611df5565b60405180910390fd5b6000600560003373ffffffffffffffffffffffffffffffffffffffff1673ffffffffffffffffffffffffffffffffffffffff168152602001908152602001600020541415610fc8576007339080600181540180825580915050600190039060005260206000200160009091909190916101000a81548173ffffffffffffffffffffffffffffffffffffffff021916908373ffffffffffffffffffffffffffffffffffffffff1602179055505b80600560003373ffffffffffffffffffffffffffffffffffffffff1673ffffffffffffffffffffffffffffffffffffffff168152602001908152602001600020600082825401925050819055508060096000828254019250508190555080600a60008282540192505081905550600860003373ffffffffffffffffffffffffffffffffffffffff1673ffffffffffffffffffffffffffffffffffffffff1681526020019081526020016000206040518060400160405280838152602001428152509080600181540180825580915050600190039060005260206000209060020201600090919091909150600082015181600001556020820151816001015550506001600660003373ffffffffffffffffffffffffffffffffffffffff1673ffffffffffffffffffffffffffffffffffffffff1681526020019081526020016000205401600660003373ffffffffffffffffffffffffffffffffffffffff1673ffffffffffffffffffffffffffffffffffffffff168152602001908152602001600020819055507f000000000000000000000000000000000000000000000000000000000000000073ffffffffffffffffffffffffffffffffffffffff166323b872dd3330846040518463ffffffff1660e01b81526004016111ab93929190611c0e565b602060405180830381600087803b1580156111c557600080fd5b505af11580156111d9573d6000803e3d6000fd5b505050506040513d601f19601f820116820180604052508101906111fd9190611786565b5050565b6a06342fd08f00f63780000081565b600360009054906101000a900473ffffffffffffffffffffffffffffffffffffffff1673ffffffffffffffffffffffffffffffffffffffff163373ffffffffffffffffffffffffffffffffffffffff16146112a0576040517f08c379a000000000000000000000000000000000000000000000000000000000815260040161129790611e35565b60405180910390fd5b699ed194db19b238c000007f000000000000000000000000000000000000000000000000000000000000000073ffffffffffffffffffffffffffffffffffffffff166370a08231306040518263ffffffff1660e01b81526004016113049190611bd8565b60206040518083038186803b15801561131c57600080fd5b505afa158015611330573d6000803e3d6000fd5b505050506040513d601f19601f8201168201806040525081019061135491906117d8565b14611394576040517f08c379a000000000000000000000000000000000000000000000000000000000815260040161138b90611d35565b60405180910390fd5b60016000806101000a81548160ff02191690831515021790555042600181905550624f1a0060015401600281905550699ed194db19b238c00000600b819055507f026cfee5c80e24c0160c7f7aab61a3abfca172e09f4b963ae55218c6c7e2ea61600154600b54604051611409929190611e70565b60405180910390a1565b6001151560008054906101000a900460ff16151514611467576040517f08c379a000000000000000000000000000000000000000000000000000000000815260040161145e90611d95565b60405180910390fd5b6000600560003373ffffffffffffffffffffffffffffffffffffffff1673ffffffffffffffffffffffffffffffffffffffff1681526020019081526020016000205490506000600560003373ffffffffffffffffffffffffffffffffffffffff1673ffffffffffffffffffffffffffffffffffffffff1681526020019081526020016000208190555080600a60008282540392505081905550600560003373ffffffffffffffffffffffffffffffffffffffff1673ffffffffffffffffffffffffffffffffffffffff16815260200190815260200160002060009055600860003373ffffffffffffffffffffffffffffffffffffffff1673ffffffffffffffffffffffffffffffffffffffff168152602001908152602001600020600061158e9190611682565b7f000000000000000000000000000000000000000000000000000000000000000073ffffffffffffffffffffffffffffffffffffffff1663a9059cbb33836040518363ffffffff1660e01b81526004016115e9929190611c45565b602060405180830381600087803b15801561160357600080fd5b505af1158015611617573d6000803e3d6000fd5b505050506040513d601f19601f8201168201806040525081019061163b9190611786565b507f76c5e0d564440312ca71561aea4db059228b7578d53de2dbb17435710a827b2d3382600a5460405161167193929190611c6e565b60405180910390a150565b60095481565b50805460008255600202906000526020600020908101906116a391906116a6565b50565b5b808211156116c9576000808201600090556001820160009055506002016116a7565b5090565b6000813590506116dc81611fba565b92915050565b6000815190506116f181611fd1565b92915050565b60008135905061170681611fe8565b92915050565b60008151905061171b81611fe8565b92915050565b60006020828403121561173357600080fd5b6000611741848285016116cd565b91505092915050565b6000806040838503121561175d57600080fd5b600061176b858286016116cd565b925050602061177c858286016116f7565b9150509250929050565b60006020828403121561179857600080fd5b60006117a6848285016116e2565b91505092915050565b6000602082840312156117c157600080fd5b60006117cf848285016116f7565b91505092915050565b6000602082840312156117ea57600080fd5b60006117f88482850161170c565b91505092915050565b600061180d8383611b7c565b60408301905092915050565b61182281611f84565b82525050565b61183181611f28565b82525050565b600061184282611eee565b61184c8185611f06565b935061185783611ede565b8060005b8381101561188857815161186f8882611801565b975061187a83611ef9565b92505060018101905061185b565b5085935050505092915050565b61189e81611f3a565b82525050565b60006118b1601a83611f17565b91507f6e6f7420656e6f756768207374616b696e6720726577617264730000000000006000830152602082019050919050565b60006118f1602283611f17565b91507f636f6e7472616374207374616b696e672063617061636974792065786365656460008301527f65640000000000000000000000000000000000000000000000000000000000006020830152604082019050919050565b6000611957601583611f17565b91507f6e6f7420656e6f756768204e465420746f6b656e7300000000000000000000006000830152602082019050919050565b6000611997601983611f17565b91507f7374616b696e6720686173206e6f7420626567756e20796574000000000000006000830152602082019050919050565b60006119d7601583611f17565b91507f6465706f736974416d6f756e7420746f6f206c6f7700000000000000000000006000830152602082019050919050565b6000611a17602483611f17565b91507f75736572732063616e206f6e6c792068617665203520746f74616c206465706f60008301527f73697473000000000000000000000000000000000000000000000000000000006020830152604082019050919050565b6000611a7d602983611f17565b91507f636f6e7472616374207374616b696e67206465706f7369742074696d6520706560008301527f72696f64206f76657200000000000000000000000000000000000000000000006020830152604082019050919050565b6000611ae3601683611f17565b91507f6465706f736974416d6f756e7420746f6f2068696768000000000000000000006000830152602082019050919050565b6000611b23602183611f17565b91507f6f6e6c7920676f7665726e616e63652063616e20626567696e207374616b696e60008301527f67000000000000000000000000000000000000000000000000000000000000006020830152604082019050919050565b604082016000820151611b926000850182611bab565b506020820151611ba56020850182611bab565b50505050565b611bb481611f66565b82525050565b611bc381611f66565b82525050565b611bd281611f70565b82525050565b6000602082019050611bed6000830184611828565b92915050565b6000602082019050611c086000830184611819565b92915050565b6000606082019050611c236000830186611819565b611c306020830185611828565b611c3d6040830184611bba565b949350505050565b6000604082019050611c5a6000830185611819565b611c676020830184611bba565b9392505050565b6000606082019050611c836000830186611819565b611c906020830185611bba565b611c9d6040830184611bba565b949350505050565b600060a082019050611cba6000830188611819565b611cc76020830187611bba565b611cd46040830186611bba565b611ce16060830185611bba565b611cee6080830184611bba565b9695505050505050565b60006020820190508181036000830152611d128184611837565b905092915050565b6000602082019050611d2f6000830184611895565b92915050565b60006020820190508181036000830152611d4e816118a4565b9050919050565b60006020820190508181036000830152611d6e816118e4565b9050919050565b60006020820190508181036000830152611d8e8161194a565b9050919050565b60006020820190508181036000830152611dae8161198a565b9050919050565b60006020820190508181036000830152611dce816119ca565b9050919050565b60006020820190508181036000830152611dee81611a0a565b9050919050565b60006020820190508181036000830152611e0e81611a70565b9050919050565b60006020820190508181036000830152611e2e81611ad6565b9050919050565b60006020820190508181036000830152611e4e81611b16565b9050919050565b6000602082019050611e6a6000830184611bba565b92915050565b6000604082019050611e856000830185611bba565b611e926020830184611bba565b9392505050565b6000608082019050611eae6000830187611bc9565b611ebb6020830186611bc9565b611ec86040830185611bc9565b611ed56060830184611bc9565b95945050505050565b6000819050602082019050919050565b600081519050919050565b6000602082019050919050565b600082825260208201905092915050565b600082825260208201905092915050565b6000611f3382611f46565b9050919050565b60008115159050919050565b600073ffffffffffffffffffffffffffffffffffffffff82169050919050565b6000819050919050565b600067ffffffffffffffff82169050919050565b6000611f8f82611f96565b9050919050565b6000611fa182611fa8565b9050919050565b6000611fb382611f46565b9050919050565b611fc381611f28565b8114611fce57600080fd5b50565b611fda81611f3a565b8114611fe557600080fd5b50565b611ff181611f66565b8114611ffc57600080fd5b5056fea2646970667358221220b08431fbf4f063c5a8ae768b3cc6b4df9cf6f49f49acf55e69a4205a5f905c3b64736f6c634300060c0033",
  "compiler": {
    "name": "solc",
    "version": "0.6.12+commit.27d51765.Emscripten.clang",
    "optimizer": {
      "enabled": false,
      "runs": 200
    },
    "evmVersion": "petersburg"
  }
}